S00F0000444132435433432E7372656351
S11300000C9434000C943E000C943E000C943E007E
S11300100C943E000C943E000C943E000C943E0064
S11300200C943E000C943E000C943E000C943E0054
S11300300C943E000C943E000C9440000C943E0042
S11300400C943E000C943E000C943E000C943E0034
S11300500C943E000C943E000C943E000C943E0024
S11300600C943E000C943E0011241FBECFEFD8E048
S1130070DEBFCDBF0E9457000C9461000C940000B9
S11300801F920F920FB60F9211248F939F938FEFAD
S113009085B983E294EF0197F1F700C0000015B829
S11300A09F918F910F900FBE0F901F9018958FEF17
S11300B084B983E08093690081E08DBB8CBB789424
S10900C0FFCFF894FFCF0E
S9030000FC
