S00C0000444133422E737265631E
S11300000C9434000C9451000C9451000C94510045
S11300100C9451000C9451000C9451000C94510018
S11300200C9451000C9451000C9451000C946700F2
S11300300C9451000C9451000C9451000C945100F8
S11300400C9451000C9451000C9451000C945100E8
S11300500C9451000C9451000C9451000C945100D8
S11300600C9451000C94510011241FBECFEFD8E022
S1130070DEBFCDBF11E0A0E0B1E0EEE9FAE002C0DE
S113008005900D92A432B107D9F721E0A4E2B1E0C2
S113009001C01D92AA32B207E1F70E94E9000C9454
S11300A04D050C9400008A3041F4E0ECF0E09081BE
S11300B095FFFDCF9DE09093C600E0ECF0E09081C9
S11300C095FFFDCF8093C60080E090E008951F92D5
S11300D00F920FB60F9211242F933F934F935F9378
S11300E06F937F938F939F93AF93BF93EF93FF93FC
S11300F0609178007091790080E090E00E946D0139
S113010020E030E040E85AE30E94FB0120E030E4C4
S11301104CE955E40E94FB0120E030E040E251E468
S11301200E94FB009F938F937F936F938EE091E0E7
S11301309F938F930E9468020F900F900F900F90DF
S11301400F900F90FF91EF91BF91AF919F918F917D
S11301507F916F915F914F913F912F910F900FBEBF
S11301600F901F901895109285001092840081E1E1
S11301709AE7909389008093880082E080936F00CF
S1130180109280008CE080938100089587B187B934
S1130190ECE7F0E01082808180648083EAE7F0E09D
S11301A080818660808380818062808310927B005E
S11301B0808180688083808180648083089588E161
S11301C08093C10086E08093C20083E38093C400DF
S11301D0089580E091E090932701809326010E9486
S11301E0DF000E94C6000E94B30078948AE090E089
S11301F00E947E02FFCF0E940F010C94C1010E9455
S1130200BA0158F00E94B30140F029F45F3F29F08D
S11302100C94AA0151110C94F5010C94B0010E94A4
S1130220D20168F39923B1F3552391F3951B550B30
S1130230BB27AA2762177307840738F09F5F5F4FB5
S1130240220F331F441FAA1FA9F335D00E2E3AF0F4
S1130250E0E832D091505040E695001CCAF72BD00C
S1130260FE2F29D0660F771F881FBB1F261737075D
S11302704807AB07B0E809F0BB0B802DBF01FF278F
S113028093585F4F3AF09E3F510578F00C94AA01C1
S11302900C94F5015F3FE4F3983ED4F3869577958B
S11302A06795B795F7959F5FC9F7880F911D969548
S11302B0879597F90895E1E0660F771F881FBB1FA4
S11302C0621773078407BA0720F0621B730B840B51
S11302D0BA0BEE1F88F7E0950895E89409C097FBE0
S11302E03EF490958095709561957F4F8F4F9F4F09
S11302F09923A9F0F92F96E9BB279395F69587954D
S113030077956795B795F111F8CFFAF4BB0F11F40F
S113031060FF1BC06F5F7F4F8F4F9F4F16C08823B6
S113032011F096E911C0772321F09EE8872F762FEC
S113033005C0662371F096E8862F70E060E02AF02D
S11303409A95660F771F881FDAF7880F9695879519
S113035097F9089597F99F6780E870E060E0089541
S11303609FEF80EC089500240A94161617061806C9
S11303700906089500240A941216130614060506A5
S11303800895092E0394000C11F4882352F0BB0F36
S113039040F4BF2B11F460FF04C06F5F7F4F8F4F99
S11303A09F4F089557FD9058440F551F59F05F3FD4
S11303B071F04795880F97FB991F61F09F3F79F083
S11303C087950895121613061406551FF2CF469505
S11303D0F1DF08C0161617061806991FF1CF869587
S11303E07105610508940895E894BB27662777276B
S11303F0CB0197F908950E940E020C94C1010E944A
S1130400B30138F00E94BA0120F0952311F00C9446
S1130410AA010C94B00111240C94F5010E94D2019C
S113042070F3959FC1F3950F50E0551F629FF00143
S1130430729FBB27F00DB11D639FAA27F00DB11D5C
S1130440AA1F649F6627B00DA11D661F829F2227E5
S1130450B00DA11D621F739FB00DA11D621F839F6C
S1130460A00D611D221F749F3327A00D611D231F42
S1130470849F600D211D822F762F6A2F11249F5790
S113048050409AF0F1F088234AF0EE0FFF1FBB1F93
S1130490661F771F881F91505040A9F79E3F510552
S11304A080F00C94AA010C94F5015F3FE4F3983EAC
S11304B0D4F3869577956795B795F795E7959F5FFC
S11304C0C1F7FE2B880F911D9695879597F908958E
S11304D0A0E0B0E0EEE6F2E00C942605AE014B5F3E
S11304E05F4FFA0161917191AF0180912601909162
S11304F027010E948502E2E00C94420560912601E6
S1130500709127010E947C040895ABE0B0E0EBE811
S1130510F2E00C9416056C017B018A01FC01178240
S11305201682838181FFCCC1CE0101963C01F60184
S11305309381F70193FD859193FF81917F01882336
S113054009F4BAC1853239F493FD859193FF819101
S11305507F01853229F4B60190E00E947C04E7CF44
S1130560912C212C312CFFE1F315D8F08B3279F04A
S113057038F4803279F08332A1F4232D20611DC038
S11305808D3261F0803369F4232D216016C0832DF0
S11305908260382EE32DE4603E2E2AC0F32DF860ED
S11305A01DC037FC2DC020ED280F2A3040F08E32BC
S11305B0B9F436FC81C1232D2064322E19C036FED5
S11305C006C08AE0989E200D1124922E11C0EAE004
S11305D02E9E200D1124222EF32DF0623F2E08C0F2
S11305E08C3621F4832D8068382E02C0883641F47D
S11305F0F70193FD859193FF81917F018111B3CF21
S1130600982F9F7D9554933028F40C5F1F4F9FE3E0
S113061099830DC0833631F0833771F0833509F047
S113062059C021C0F801808189830E5F1F4F88243F
S11306308394912C530113C02801F2E04F0E511CF6
S1130640F801A080B18036FE03C0692D70E002C0BD
S11306506FEF7FEFC5010E9471044C018201F32DFD
S1130660FF773F2E16C0280122E0420E511CF801EC
S1130670A080B18036FE03C0692D70E002C06FEF28
S11306807FEFC5010E9466044C01F32DF0683F2EF4
S1130690820133FC1BC0822D90E088169906B0F4C9
S11306A0B60180E290E00E947C042A94F4CFF50124
S11306B037FC859137FE81915F01B60190E00E947D
S11306C07C0421102A9421E0821A91088114910457
S11306D071F7E8C0843611F0893641F5F80137FE28
S11306E007C060817181828193810C5F1F4F08C0B4
S11306F060817181072E000C880B990B0E5F1F4FD0
S1130700F32DFF763F2E97FF09C090958095709545
S113071061957F4F8F4F9F4FF0683F2E2AE030E066
S1130720A3010E94B804882E861845C0853731F489
S1130730232D2F7EB22E2AE030E025C0932D997F01
S1130740B92E8F36C1F018F4883579F0B5C08037EA
S113075019F0883721F0B0C0E92FE061BE2EB4FE55
S11307600DC0FB2DF460BF2E09C034FE0AC0292F32
S11307702660B22E06C028E030E005C020E130E05B
S113078002C020E132E0F801B7FE07C06081718148
S1130790828193810C5F1F4F06C06081718180E06C
S11307A090E00E5F1F4FA3010E94B804882E8618A4
S11307B0FB2DFF773F2E36FE0DC0232D2E7FA22E5C
S11307C0891458F434FE0BC032FC09C0832D8E7E8C
S11307D0A82E05C0B82CA32C03C0B82C01C0B92C7A
S11307E0A4FE0FC0FE01E80DF11D8081803321F4C9
S11307F09A2D997EA92E09C0A2FE06C0B394B39483
S113080004C08A2D867809F0B394A3FC11C0A0FE1D
S113081006C0B21488F4280C922C9B180EC0B21493
S113082060F4B60180E290E00E947C04B394F7CFB8
S1130830B21418F42B1802C0982C212CA4FE10C05A
S1130840B60180E390E00E947C04A2FE17C0A1FCE4
S113085003C088E790E002C088E590E0B6010CC0D0
S11308608A2D867859F0A1FE02C08BE201C080E295
S1130870A7FC8DE2B60190E00E947C04891438F450
S1130880B60180E390E00E947C049A94F7CF8A94A6
S1130890F301E80DF11D8081B60190E00E947C0413
S11308A08110F5CF222009F442CEB60180E290E017
S11308B00E947C042A94F6CFF6018681978102C0B7
S11308C08FEF9FEF2B96E2E10C943205FC0105902B
S11308D0615070400110D8F7809590958E0F9F1F3E
S11308E00895FC016150704001900110D8F7809583
S11308F090958E0F9F1F08950F931F93CF93DF93AF
S1130900FB01238121FD03C08FEF9FEF2CC022FF49
S113091016C046815781248135814217530744F418
S1130920A081B1819D012F5F3F4F318320838C9340
S1130930268137812F5F3F4F3783268314C08B0175
S1130940EC01FB010084F185E02D0995892BE1F68A
S1130950D80116968D919C911797019617969C93A2
S11309608E931697CE01DF91CF911F910F91089529
S1130970FA01AA27283051F1203181F1E8946F93CC
S11309806E7F6E5F7F4F8F4F9F4FAF4FB1E03ED072
S1130990B4E03CD0670F781F891F9A1FA11D680F10
S11309A0791F8A1F911DA11D6A0F711D811D911D43
S11309B0A11D20D009F468943F912AE0269F1124B8
S11309C03019305D3193DEF6CF010895462F47701C
S11309D0405D4193B3E00FD0C9F7F6CF462F4F7077
S11309E0405D4A3318F0495D31FD4052419302D0D5
S11309F0A9F7EACFB4E0A69597958795779567957B
S1130A00BA95C9F700976105710508959B01AC017A
S1130A100A2E06945795479537952795BA95C9F7A1
S1130A20620F731F841F951FA01D08952F923F927C
S1130A304F925F926F927F928F929F92AF92BF92EA
S1130A40CF92DF92EF92FF920F931F93CF93DF9396
S1130A50CDB7DEB7CA1BDB0B0FB6F894DEBF0FBEF3
S1130A60CDBF09942A88398848885F846E847D8440
S1130A708C849B84AA84B984C884DF80EE80FD8042
S1130A800C811B81AA81B981CE0FD11D0FB6F894B8
S1110A90DEBF0FBECDBFED010895F894FFCF79
S1130A9E0000000200000000530000000000546536
S1130AAE6D70284629204C4D33343A2025332E328E
S1070ABE660D0000BD
S9030000FC
