:100000000C9434000C9451000C9451000C94510049
:100010000C9451000C9451000C9451000C9451001C
:100020000C9451000C9451000C9451000C9451000C
:100030000C9451000C948D000C9451000C945100C0
:100040000C9451000C9451000C9451000C945100EC
:100050000C9451000C9451000C9451000C945100DC
:100060000C9451000C94510011241FBECFEFD8E026
:10007000DEBFCDBF11E0A0E0B1E0EEECF7E002C0E2
:1000800005900D92A631B107D9F721E0A6E1B1E0C4
:1000900001C01D92AA32B207E1F70E945F000C94E2
:1000A000E5030C9400001092C50087E68093C4001D
:1000B00086E08093C20088E18093C100089585E0C6
:1000C0008093810081E080936F0087EF92EC9093A2
:1000D0008500809384000E9453007894FFCFCF93D3
:1000E000DF93FC012081222369F0DC011196E0EC12
:1000F000F0E0C6ECD0E0908195FFFDCF28832D91F4
:100100002111F9CFDF91CF910895E0ECF0E09081DB
:1001100095FFFDCF8093C60008951F920F920FB6F2
:100120000F9211242F933F934F935F936F937F937D
:100130008F939F93AF93BF93EF93FF9384E091E0EE
:100140000E946F0084E191E00E946F0085E30E94AD
:10015000850084E191E00E946F0080910001909100
:100160000101A0910201B0910301BF93AF939F934E
:100170008F9381E191E09F938F931F9284E18F93FE
:1001800086E191E09F938F930E94ED0086E191E0DC
:100190000E946F0084E191E00E946F0087EF92EC73
:1001A00090938500809384008DB79EB70A960FB612
:1001B000F8949EBF0FBE8DBFFF91EF91BF91AF919D
:1001C0009F918F917F916F915F914F913F912F916F
:1001D0000F900FBE0F901F901895AEE0B0E0E3EFC8
:1001E000F0E00C94BC030D891E898F89988D26E060
:1001F0002C831A83098397FF02C080E090E801975F
:100200009E838D83AE01455E5F4F698D7A8DCE01F1
:1002100001960E941D014D815E8157FD0AC02F810C
:100220003885421753070CF49A01F801E20FF31FC7
:1002300010822E96E4E00C94D803ABE0B0E0E3E249
:10024000F1E00C94AE036C017B018A01FC01178282
:100250001682838181FFCCC1CE0101963C01F6015B
:100260009381F70193FD859193FF81917F0188230D
:1002700009F4BAC1853239F493FD859193FF8191D8
:100280007F01853229F4B60190E00E941403E7CF84
:10029000912C212C312CFFE1F315D8F08B3279F021
:1002A00038F4803279F08332A1F4232D20611DC00F
:1002B0008D3261F0803369F4232D216016C0832DC7
:1002C0008260382EE32DE4603E2E2AC0F32DF860C4
:1002D0001DC037FC2DC020ED280F2A3040F08E3293
:1002E000B9F436FC81C1232D2064322E19C036FEAC
:1002F00006C08AE0989E200D1124922E11C0EAE0DB
:100300002E9E200D1124222EF32DF0623F2E08C0C8
:100310008C3621F4832D8068382E02C0883641F453
:10032000F70193FD859193FF81917F018111B3CFF7
:10033000982F9F7D9554933028F40C5F1F4F9FE3B7
:1003400099830DC0833631F0833771F0833509F01E
:1003500059C021C0F801808189830E5F1F4F882416
:100360008394912C530113C02801F2E04F0E511CCD
:10037000F801A080B18036FE03C0692D70E002C094
:100380006FEF7FEFC5010E9409034C018201F32D3D
:10039000FF773F2E16C0280122E0420E511CF801C3
:1003A000A080B18036FE03C0692D70E002C06FEFFF
:1003B0007FEFC5010E94FE024C01F32DF0683F2E35
:1003C000820133FC1BC0822D90E088169906B0F4A0
:1003D000B60180E290E00E9414032A94F4CFF50164
:1003E00037FC859137FE81915F01B60190E00E9454
:1003F000140321102A9421E0821A91088114910497
:1004000071F7E8C0843611F0893641F5F80137FEFE
:1004100007C060817181828193810C5F1F4F08C08A
:1004200060817181072E000C880B990B0E5F1F4FA6
:10043000F32DFF763F2E97FF09C09095809570951C
:1004400061957F4F8F4F9F4FF0683F2E2AE030E03D
:10045000A3010E945003882E861845C0853731F4C9
:10046000232D2F7EB22E2AE030E025C0932D997FD8
:10047000B92E8F36C1F018F4883579F0B5C08037C1
:1004800019F0883721F0B0C0E92FE061BE2EB4FE2C
:100490000DC0FB2DF460BF2E09C034FE0AC0292F09
:1004A0002660B22E06C028E030E005C020E130E032
:1004B00002C020E132E0F801B7FE07C0608171811F
:1004C000828193810C5F1F4F06C06081718180E043
:1004D00090E00E5F1F4FA3010E945003882E8618E4
:1004E000FB2DFF773F2E36FE0DC0232D2E7FA22E33
:1004F000891458F434FE0BC032FC09C0832D8E7E63
:10050000A82E05C0B82CA32C03C0B82C01C0B92C50
:10051000A4FE0FC0FE01E80DF11D8081803321F49F
:100520009A2D997EA92E09C0A2FE06C0B394B39459
:1005300004C08A2D867809F0B394A3FC11C0A0FEF4
:1005400006C0B21488F4280C922C9B180EC0B2146A
:1005500060F4B60180E290E00E941403B394F7CFF8
:10056000B21418F42B1802C0982C212CA4FE10C031
:10057000B60180E390E00E941403A2FE17C0A1FC24
:1005800003C088E790E002C088E590E0B6010CC0A7
:100590008A2D867859F0A1FE02C08BE201C080E26C
:1005A000A7FC8DE2B60190E00E941403891438F490
:1005B000B60180E390E00E9414039A94F7CF8A94E6
:1005C000F301E80DF11D8081B60190E00E94140353
:1005D0008110F5CF222009F442CEB60180E290E0EE
:1005E0000E9414032A94F6CFF6018681978102C0F7
:1005F0008FEF9FEF2B96E2E10C94CA03FC0105906C
:10060000615070400110D8F7809590958E0F9F1F14
:100610000895FC016150704001900110D8F7809559
:1006200090958E0F9F1F08950F931F93CF93DF9385
:10063000FB01238121FD03C08FEF9FEF2CC022FF20
:1006400016C046815781248135814217530744F4EF
:10065000A081B1819D012F5F3F4F318320838C9317
:10066000268137812F5F3F4F3783268314C08B014C
:10067000EC01FB010084F185E02D0995892BE1F661
:10068000D80116968D919C911797019617969C9379
:100690008E931697CE01DF91CF911F910F91089500
:1006A000FA01AA27283051F1203181F1E8946F93A3
:1006B0006E7F6E5F7F4F8F4F9F4FAF4FB1E03ED049
:1006C000B4E03CD0670F781F891F9A1FA11D680FE7
:1006D000791F8A1F911DA11D6A0F711D811D911D1A
:1006E000A11D20D009F468943F912AE0269F11248F
:1006F0003019305D3193DEF6CF010895462F4770F3
:10070000405D4193B3E00FD0C9F7F6CF462F4F704D
:10071000405D4A3318F0495D31FD4052419302D0AB
:10072000A9F7EACFB4E0A695979587957795679551
:10073000BA95C9F700976105710508959B01AC0151
:100740000A2E06945795479537952795BA95C9F778
:10075000620F731F841F951FA01D08952F923F9253
:100760004F925F926F927F928F929F92AF92BF92C1
:10077000CF92DF92EF92FF920F931F93CF93DF936D
:10078000CDB7DEB7CA1BDB0B0FB6F894DEBF0FBECA
:10079000CDBF09942A88398848885F846E847D8417
:1007A0008C849B84AA84B984C884DF80EE80FD8019
:1007B0000C811B81AA81B981CE0FD11D0FB6F8948F
:0E07C000DEBF0FBECDBFED010895F894FFCF50
:1007CE00DC0F494048656C6C6F20576F726C64216A
:0607DE000025660D0A0073
:00000001FF
